:040000001AEF79F08A
:10F1D800E8CF02F002C01AF001C019F01200E8CF1F
:10F1E80001F0C95001C0C9FF9EA6FED79E96120025
:10F1F8000B0E026E800E016E000E046E000E036E82
:10F20800040E066E000E056E3EEC79F01200D388EF
:10F21800D38AD38CD396D350FC0B0209D36E9B9C14
:10F228009268F80E936ED70E946E12000BEE80F073
:10F2380014EE00F0EE6AE550E150FCE1E250FAE12C
:10F248001A6A196A0001AAEF7BF0000E056E000E1B
:10F25800046E09D0030E036E980EE82EFED7032E17
:10F26800FCD7044A052A0150045C02500558D8B05E
:10F278001200F0D702C008F001C007F008D007C09C
:10F28800D9FF08C0DAFF03C0DFFF074A082A0506CE
:10F29800D8A006060528D8B40628D8B41200EFD797
:10F2A8000CD00FC0F6FF10C0F7FF000EF86E080074
:10F2B800F55076EC7AF00F4A102A0FC0F6FF10C00E
:10F2C800F7FF000EF86E0800F5500009D8B41200D8
:10F2D800E8D70CD00DC0F6FF0EC0F7FF000EF86E91
:10F2E8000800F550DDEC7AF00D4A0E2A0DC0F6FF45
:10F2F8000EC0F7FF000EF86E0800F5500009D8B4EC
:10F308001200E8D701500302F3CF05F0F4CF06F05E
:10F3180001500402F3CFF4FFF36AF3500526F450CA
:10F32800062202500302F3CFF4FFF36AF3500526D6
:10F33800F450062205C001F006C002F01200026E69
:10F34800000E076E025034D08A948A900750B00994
:10F35800F3EC78F0000EF3EC78F0100EF3EC78F0A4
:10F36800E00EF3EC78F08A84026E000E066E02500E
:10F378001AD00750026E036A070ED8900236033679
:10F38800E82EFBD70650046E056A02500426035087
:10F398000522800E0424D96E0B0E0520DA6EDF508C
:10F3A800F3EC78F0062A7F0E0664E3D78A80072AF2
:10F3B800070E0764C9D712008A908A92000E026E5F
:10F3C800010E016E29EC79F08A82000E026E010EA0
:10F3D800016E29EC79F08A948A90A30EF3EC78F008
:10F3E800A10EF3EC78F0C80EF3EC78F0A40EF3EC71
:10F3F80078F0400EF3EC78F02C0EF3EC78F0000E79
:10F40800026E320E016E29EC79F02E0EF3EC78F0D4
:10F41800000E026E320E016E29EC79F02F0EF3EC1D
:10F4280078F0000E026E320E016E29EC79F0230E90
:10F43800F3EC78F0810EF3EC78F0210EF3EC78F031
:10F44800AF0EF3EC78F08A801200056E000E0E6E97
:10F45800055043D0056E000E0D6E055039D00E5084
:10F4680003020D50056E066AF3500526F450062275
:10F4780001C007F002C008F0055007260650082210
:10F4880007C0F6FF08C0F7FF000EF86E19500EC04F
:10F4980009F00A6A0926000E0A22070ED8900936D2
:10F4A8000A36E82EFBD71A500DC00BF00C6A0B2653
:10F4B800000E0C2209500B260A500C22800E0B2439
:10F4C800D96E0B0E0C20DA6E0800F5CFDFFF0D2A7F
:10F4D80003500D5CD8A0C3D70E2A04500E5CD8B0D8
:10F4E8001200B8D7E8CF0DF07C0E1A6405D0076E6D
:10F4F800000E1A6E0750192A076E000E0E6E07507E
:10F508003BD0E00E0D24016E026AFF0E0222000EAF
:10F51800046E050E036E86EC79F09F0E076EF90EE9
:10F52800086E01500726025008220E50010DF350B4
:10F538000726F450082207C0F6FF08C0F7FF000EA0
:10F54800F86E1950096E0A6A070ED89009360A36FD
:10F55800E82EFBD71A500B6E0C6A09500B260A507E
:10F568000C22800E0B24D96E0B0E0C20DA6E0800CC
:10F57800F5CFDFFF1A2A0E2A040E0E64C2D71950DF
:10F58800076E086A070ED89007360836E82EFBD7AC
:10F598001A50096E0A6A0750092608500A22800E76
:10F5A8000924D96E0B0E0A20DA6E000EDF6E1A2AB5
:10F5B8001200E8CF0BF0790E1A6406D0076E000E21
:10F5C8001A6E0750020E1926196603D0076E010E2F
:10F5D80005D0070E196404D0076E070E196E075080
:10F5E800076E000E0C6E075039D0D50E0B24016E35
:10F5F800026AFF0E0222000E046E0E0E036E86ECE7
:10F6080079F00C500126000E02227F0E0124F66EBE
:10F61800FB0E0220F76EF86A000EF822800E076EC5
:10F62800FF0E086E1950096E0A6A070ED89009363F
:10F638000A36E82EFBD71A500926000E0A22075070
:10F64800092608500A22800E0924D96E0B0E0A20BA
:10F65800DA6E0800F5CFDFFF1A2A0C2A060E0C64B2
:10F66800C4D7800E076EFF0E086E1950096E0A6A1D
:10F67800070ED89009360A36E82EFBD71A50092605
:10F68800000E0A220750092608500A22800E092473
:10F69800D96E0B0E0A20DA6E000EDF6E070E1A5EA8
:10F6A800076E070E0C6E075034D0D50E0B24016E72
:10F6B800026AFF0E0222000E046E0E0E036E86EC26
:10F6C80079F00C500126000E02227F0E0124F66EFE
:10F6D800FB0E0220F76EF86A000EF8221950076E2A
:10F6E800086A070ED89007360836E82EFBD71A5056
:10F6F800096E0A6A0750092608500A22800E092452
:10F70800D96E0B0E0A20DA6E0800F5CFDFFF1A2A31
:10F718000C2A0D0E0C64C9D71950076E086A070E1B
:10F72800D89007360836E82EFBD71A50096E0A6AB1
:10F738000750092608500A22800E0924D96E0B0E9C
:10F748000A20DA6E000EDF6E1A2A12000BEC79F02E
:10F75800C690C692C694C696C78CC68AE0EC79F065
:10F76800FCEC78F0FC0E026E5F0E016E166E7F0EDA
:10F77800036E1650176E060E046E175029EC7AF0B9
:10F78800166E060E016E1650000EECEC78F0FF0EA9
:10F79800106E860E0F6E54EC79F0166E070E016E21
:10F7A8001650000EECEC78F0FF0E106E690E0F6E1E
:10F7B80054EC79F0A3EC79F0070E026ED00E016ECE
:10F7C80029EC79F0166E000E186E1650FCEC78F0E5
:10F7D800CFD0166E000E016E1650140EECEC78F0B9
:10F7E800FF0E106E590E0F6E54EC79F0166E010E66
:10F7F800016E1650000EECEC78F0FF0E106EEE0E57
:10F808000F6E54EC79F0166E010E016E1650400E14
:10F81800ECEC78F0FF0E106EF80E0F6E54EC79F0E9
:10F82800166E020E016E1650000EECEC78F0FF0E0C
:10F83800106EFC0E0F6E54EC79F0166E020E016E0F
:10F848001650400EECEC78F0FF0E106EDC0E0F6ECA
:10F8580054EC79F0560E76EC7AF0166E030E016EC3
:10F868001650000EECEC78F0FF0E106ECD0E0F6EF9
:10F8780054EC79F0166E030E016E1650400EECEC47
:10F8880078F0FF0E106EE80E0F6E54EC79F0560EFD
:10F8980076EC7AF0166E040E016E1650000EECEC43
:10F8A80078F0FF0E106EBD0E0F6E54EC79F0166EE8
:10F8B800050E016E1650000EECEC78F0FF0E106E7F
:10F8C800D50E0F6E54EC79F0166E050E016E1650BB
:10F8D800400EECEC78F0FF0E0E6EF40E0D6E6DEC33
:10F8E80079F0570E76EC7AF0166E060E016E165009
:10F8F800000EECEC78F0FF0E106E9F0E0F6E54ECBD
:10F9080079F0166E070E016E1650000EECEC78F0CA
:10F91800FF0E106EC50E0F6E54EC79F0166E070EC2
:10F92800016E1650400EECEC78F0FF0E0E6EE20EF3
:10F938000D6E6DEC79F0570E76EC7AF023D0FF0E51
:10F94800106EA90E0F6E54EC79F0FF0E106EB30E08
:10F958000F6E54EC79F0FF0E106E780E0F6E54ECAB
:10F9680079F0FF0E106E930E0F6E54EC79F00AD0FA
:10F978001850000AD8B42DD7010AD8B403D0030A06
:10F98800D8B4DDD7A3EC79F0010E026EF40E016E47
:10F9980029EC79F01BD700000000000000006F0080
:10F9A800000007000700147F147F140007041E00DE
:10F9B80023130864623649562050000007000000EF
:10F9C8001C2241000041221C0014083E08140808AB
:10F9D8003E08080050300000080808080800606069
:10F9E800000020100804023E5149453E00427F4075
:10F9F8000042615149462141454B311814127F108C
:10FA080027454545393C4A494930017109050336BE
:10FA180049494936064949291E003636000000562C
:10FA28003600000814224100141414141400412252
:10FA3800140802015109063E415D494E7E09090933
:10FA48007E7F494949363E414141227F4141413EFD
:10FA58007F494949417F090909013E4149497A7F5E
:10FA68000808087F00417F41002040413F017F088E
:10FA78001422417F404040407F020C027F7F0408EF
:10FA8800107F3E4141413E7F090909063E4151210F
:10FA98005E7F09192946464949493101017F01011B
:10FAA8003F4040403F0F3040300F3F4030403F63C1
:10FAB80014081463070870080761514945433C4A14
:10FAC80049291E020408102000417F000004020199
:10FAD80002044040404040000003040020545454B5
:10FAE800787F484444383844444420384444487F64
:10FAF8003854545418087E0901020C5252523E7F61
:10FB08000804047800447D40002040443D00007F04
:10FB180010284400417F40007C041804787C0804C5
:10FB2800047838444444387C14141408081414180D
:10FB38007C7C080404084854545420043F44402062
:10FB48003C4040207C1C2040201C3C4030403C4431
:10FB5800281028440C5050503C4464544C4400082D
:10FB680036414100007F000041413608000402048C
:10FB780008047F6B6B6B7F008080E0E08080000072
:10FB8800000303000000000000000000000000580F
:10FB980038000080808080808080000000000000A5
:10FBA80000000000000000000000003030000000ED
:10FBB8000000C0F03C0F003C0F03000000FCFE03F7
:10FBC800E11BFEFC0F1F3621301F0F040406FFFF48
:10FBD80000002020203F3F20200C0E030181FE7CE6
:10FBE800383C26232120200C0E434143FEBC0C1C2C
:10FBF8003020301F0F00E0FC1F8380000F0F080823
:10FC08003F3F083F3F212161E1810C1C3020303FFC
:10FC18000FE0F85C46C3C1010F1F3020303F0F01D1
:10FC2800010181F17F0F00003C3F0300001CBEE38F
:10FC380041E3BE1C0F1F3020301F0F3C7EC3818163
:10FC4800FEFC2030380C0703000000006060000054
:10FC58000000003030000000C0F0781C0C0E0606D2
:10FC68000703030303030303030303030383C3E338
:10FC7800733B1F0F07030100000000E0F0F81C1C95
:10FC88000C0C0C0C1C3CF8F0E0000000FCFC000024
:10FC980000000000808080000000808080808080DC
:10FCA80080800000000000008080808080808000CC
:10FCB800808000008080008080808080808000803C
:10FCC800808080808080000000000000808080802C
:10FCD800808080800000FFFF01000000000000001D
:10FCE8000000000080C0E070381C0E07030100808F
:10FCF800C0E07038FCFE00000000C1C7070E0E0C03
:10FD08001C1C1C183878F0F0C00000FFFFF0707859
:10FD1800FCEEC7030301008CCFEFE361616161333F
:10FD2800FFFF0000F0FEFF07030101010303FFFFCF
:10FD3800FF0000FFFF1F030101010107FFFF070389
:10FD480001010103FFFF000000FCFF0F0301010197
:10FD5800010307FFFEFFFF0000000080C0E07038CD
:10FD68001C0E0703010080C0E070381C0E07030159
:10FD7800000000FFFF00000000070F1F1C1C1818E0
:10FD88001818181C1E0F070100001F1F0000000094
:10FD980003070F1E1C000F1F1D181818181C0E0F24
:10FDA8001F181800C3CFCE1C1C18181C8EF7FF7F15
:10FDB80000001F1F000000000000001F1F000000BF
:10FDC8000000001F1F000000070F1E1C181818183D
:10FDD8001C1E0F07FF7F381C0E0703010080C0E0C0
:10FDE80070381C0E0703010000000000000000002E
:10FDF8000000FFFF00000000FCFC0C0C0C0C0C0CBD
:10FE08000C0C00FCFC000080C0C0E06060C0C0803A
:10FE1800000080C0E06060E0C0C00040F8F84040EA
:10FE28000080C0E061636303C3C3E36363E1C08030
:10FE38000000C0C0E0E06060E0C0800000DCDC00E2
:10FE480000C0C0E06060E0C0800080C0C06060E0CA
:10FE5800C0C0800080C0E0F0B89C8E87838180801D
:10FE68008080808080808080808080C0C0E0703802
:10FE78003E0F0300000000FFFF8383838383838397
:10FE88008300FFFF00007FFFCCCC8C8CCCEF6F0091
:10FE98003F7FE1C08080C0F3730000FFFF808000D7
:10FEA800FFFF030000003FFFE1C08080C0E17F3F0B
:10FEB80000FFFF0100000000FFFF0000FFFF003F00
:10FEC800FFE1C08080C0F3730073F7C68E8C8CDCB2
:10FED800F97901010101010101010101010101019A
:10FEE8000101010101010101010100000000000000
:10FEF80000000000000001010101010101010101F0
:10FF080000010100000000000101010000000000E4
:10FF180000000101010100000000000101000001D2
:10FF280001000000000000000101010000000000C5
:10FF380001010000000000010100000101000000B3
:10FF480000010101010000000000000101010000A2
:10FF5800002D204D6561737572656D656E74202D79
:10FF680000485720302E322C20535720302E320094
:10FF78004241434B4C49474854204F4646004D5058
:10FF88005054206368617267657200524553455446
:10FF98005F53544154530046726F6D206261742E52
:10FFA800004F55545F31204F4646004F55545F323D
:10FFB800204F464600546F206261742E0020323272
:10FFC8002E32374100426174746572790020302EF8
:10FFD8003831410031382E3531003132372E330077
:10FFE80031322E353400537461746500372E350074
:08FFF800434847005056000089
:020000040020DA
:08000000FFFFFFFFFFFFFFFF00
:020000040030CA
:0E000000FF081F1EFF0181FF0FC00FE00F4021
:00000001FF
