:0400000064EF00F0B9
:10000800FACF01F0FBCF02F0E9CF03F0EACF04F01A
:10001800E1CF05F0E2CF06F0D9CF07F0DACF08F04C
:10002800F3CF09F0F4CF0AF0F6CF0BF0F7CF0CF0CE
:10003800F8CF0DF0F5CF0EF09EAA0FD04350010D6A
:100048000001600EF324D96E0001000EF420DA6E70
:10005800AECFDFFF43281F0B436E9EB89DA813D079
:100068004650010D0001800EF324D96E0001000EE8
:10007800F420DA6EDF50AD6E46281F0B466E4550F1
:10008800466201D09D980EC0F5FF0DC0F8FF0CC068
:10009800F7FF0BC0F6FF0AC0F4FF09C0F3FF08C062
:1000A800DAFF07C0D9FF06C0E2FF05C0E1FF04C0C0
:1000B800EAFF03C0E9FF02C0FBFF01C0FAFF11001D
:0400C800CCEF05F084
:10010000005348444E0044454300494E43000D0A05
:100110000024002C0000E9EC05F0F4EC05F0BCEC48
:1001200005F0000E2E6E960E2F6E000E306E000E35
:10013000316ED1EC04F0680E3F6EE40EE82EFED76F
:100140003F2EFCD700D0F28CF28E3F6E000E0001E5
:100150000001AC6F3F503F6E780E00010001AF6FA1
:100160003F5031D0780E00010001AF5DD8B02BD0E8
:1001700000010001AF2B00010001AF51ABEC05F015
:1001800022D0280E00010001AF651DD00001000142
:10019000AF0700010001AF51ABEC05F014D0F4EC57
:1001A00005F011D071EC05F00ED085EC05F0640A75
:1001B000D8B4E7D70B0AD8B4F2D71F0AD8B4F2D70D
:1001C000050AD8B4CFD7DBEC05F00009D8A4EDD7E9
:1001D0001E0E186E550E196E000E1A6E000E1B6E56
:1001E000070E98EC05F00FC014F010C015F0000ECB
:1001F00015BEFF0E166E176E12EC05F014C020F03F
:1002000015C021F016C022F017C023F0E80E246EAE
:10021000030E256E000E266E000E276E8EEC04F087
:1002200020C03FF021C040F022C041F023C042F086
:100230003FC0A8F040C0A9F0050E98EC05F0D8909A
:100240000F3400010001A06F10340001A16F900E67
:10025000186E550E196E000E1A6E000E1B6E080EEB
:1002600098EC05F00FC014F010C015F0000E15BE8C
:10027000FF0E166E176E12EC05F014C020F015C0BC
:1002800021F016C022F017C023F0E80E246E030EF2
:10029000256E000E266E000E276E8EEC04F020C038
:1002A0003FF021C040F022C041F023C042F03FC0E7
:1002B000ADF040C0AEF0060E98EC05F0D8900F34CB
:1002C00000010001AA6F10340001AB6F090E98EC19
:1002D00005F0D8900F3400010001A26F1034000126
:1002E000A36FA9D0C90E00010001A85D320E000164
:1002F000A959D8A0ACD0D40E00010001AD5D300EDC
:100300000001AE59D8B0A3D03F6E780E00010001B5
:10031000AF6F3F5000010001AF51ABEC05F071EC45
:1003200005F03F6E010E00010001AC6F3F508FD011
:10033000280E00010001AA5D000E0001AB59D8A0F3
:1003400009D0D40E00010001AD5D300E0001AE59A0
:10035000D8A009D03F6E000E00010001AC6F3F50E5
:10036000F4EC05F074D000010001A451000100017B
:10037000AD5D00010001A55100010001AE59D8A0FA
:1003800009D0280E00010001AF6504D00001000172
:10039000AF0709D000010001AF2B3F6E020E000134
:1003A0000001AC6F3F5000010001AF51ABEC05F014
:1003B0004ED0280E00010001AA5D000E0001AB59CD
:1003C000D8A009D0D40E00010001AD5D300E0001AF
:1003D000AE59D8A009D03F6E000E00010001AC6FED
:1003E0003F50F4EC05F033D000010001A4510001AE
:1003F0000001AD5D00010001A55100010001AE59F1
:10040000D8A00AD0780E00010001AF5DD8B004D0AA
:1004100000010001AF2B09D000010001AF073F6EC2
:10042000010E00010001AC6F3F5000010001AF510F
:10043000ABEC05F00CD000010001AC51000AD8B4BF
:1004400051D7010AD8B474D7030AD8B4B2D7ADC013
:10045000A4F0AEC0A5F0010E116E110E106E5CEC92
:1004600005F00001A8C020F00001A9C021F0226A17
:10047000236AF7EC02F0010E116E130E106E5CECA5
:1004800005F0C50E00010001A85D090E0001A95983
:10049000D8A00BD00001A0C020F00001A1C021F025
:1004A000226A236AF7EC02F006D0010E116E130ED9
:1004B000106E5CEC05F0010E116E130E106E5CEC0C
:1004C00005F00001ADC020F00001AEC021F0226AAD
:1004D000236AF7EC02F0010E116E130E106E5CEC45
:1004E00005F0C50E00010001AD5D090E0001AE5919
:1004F000D8A00AD00001AAC020F00001ABC021F0B2
:10050000226A236AF7EC02F0010E116E130E106ED0
:100510005CEC05F0C50E00010001AD5D090E0001A7
:10052000AE59D8A00AD00001A2C020F00001A3C09B
:1005300021F0226A236AF7EC02F0010E116E130E0D
:10054000106E5CEC05F000010001AF51206E216AD5
:10055000226A236AF7EC02F0010E116E130E106E80
:100560005CEC05F015D0010E116E010E106E5CEC06
:1005700005F01AD0010E116E0A0E106E5CEC05F03B
:1005800013D0010E116E060E106E5CEC05F00CD04F
:1005900000010001AC51000AD8B4E5D7010AD8B473
:1005A000F0D7030AD8B4E6D7010E116E0E0E106E06
:1005B0005CEC05F0000E00010001A76F000E0001C9
:1005C000A66F640E00010001A65D000E0001A75990
:1005D000D8B0F9D5060E3F6E300EE82EFED73F2E6E
:1005E000FCD700D000010001A64BA72BEAD7246E50
:1005F000000E376E24502350800A800F08E1000E51
:10060000225C05E1000E215C02E1000E205CD8B006
:100610001DD02D0E3DEC05F020C014F021C015F0CA
:1006200022C016F023C017F0FF0E186EFF0E196ED1
:10063000FF0E1A6EFF0E1B6E12EC05F014C020F0B8
:1006400015C021F016C022F017C023F03750010D5D
:100650002A0EF324D96E000EF420DA6E20C00FF0BB
:1006600021C010F022C011F023C012F00A0E136E48
:10067000000E146E000E156E000E166E1AEC04F0CD
:100680000FC024F010C025F011C026F012C027F0D2
:100690002450300FDF6E372A20C00FF021C010F039
:1006A00022C011F023C012F00A0E136E000E146E59
:1006B000000E156E000E166E96EC03F00FC020F0C3
:1006C00010C021F011C022F012C023F023502010DE
:1006D00021102210D8A4BAD7246E000E366E2450F2
:1006E00020D0FF0E246EFF0E256E3650266E276A30
:1006F000261E271E264A272A3750286E296A26508A
:1007000028262750292224502826255029222A0E1F
:100710002824D96E000E2920DA6EDF503DEC05F05A
:10072000362A3750365CD8B01200DBD7176E000E71
:10073000196E17501650800A800F08E1000E155CE4
:1007400005E1000E145C02E1000E135CD8B00CD081
:10075000161E151E141E136C000E142215221622CE
:10076000176E010E196E17501250800A800F08E1A3
:10077000000E115C05E1000E105C02E1000E0F5C42
:10078000D8B00AD0121E111E101E0F6C000E1022BF
:1007900011221222010E191A000E1A6E000E1B6E83
:1007A000000E1C6E000E1D6E165013101410151046
:1007B000D8B42CD0176E010E186E175006D0D890F2
:1007C0001336143615361636182A16AEF8D7D890C2
:1007D0001A361B361C361D3613500F5C1450105839
:1007E0001550115816501258D8A009D013500F5E4A
:1007F0001450105A1550115A1650125A1A80D89087
:100800001632153214321332182EE1D71950D8B4DB
:1008100008D01D1E1C1E1B1E1A6C000E1B221C2243
:100820001D221AC00FF01BC010F01CC011F01DC01B
:1008300012F01200176E000E196E17501250800A37
:10084000800F08E1000E115C05E1000E105C02E172
:10085000000E0F5CD8B00CD0121E111E101E0F6CB3
:10086000000E102211221222176E010E196E17505F
:100870001650800A800F08E1000E155C05E1000E9D
:10088000145C02E1000E135CD8B008D0161E151ED1
:10089000141E136C000E142215221622165013106B
:1008A00014101510D8B426D0176E010E186E1750FC
:1008B00006D0D8901336143615361636182A16AECA
:1008C000F8D713500F5C145010581550115816508B
:1008D0001258D8A008D013500F5E1450105A15505B
:1008E000115A1650125AD890163215321432133249
:1008F000182EE7D71950D8B408D0121E111E101E9A
:100900000F6C000E1022112212220FC00FF010C027
:1009100010F011C011F012C012F01200000E296E7A
:10092000000E2A6E000E2B6E000E2C6E2750241027
:1009300025102610D8B42CD0286E010E2D6E28500C
:1009400006D0D89024362536263627362D2A27AECF
:10095000F8D7D89029362A362B362C362450205CEE
:10096000255021582650225827502358D8A009D066
:100970002450205E2550215A2650225A2750235AAF
:100980002980D89027322632253224322D2EE1D7E5
:1009900029C020F02AC021F02BC022F02CC023F067
:1009A0001200000E206E240E216EF40E226E000E38
:1009B000236E2EC024F02FC025F030C026F031C0A9
:1009C00027F08EEC04F020C032F021C033F022C0BA
:1009D00034F023C035F0050E05D0D89035323432CE
:1009E00033323232E82EF9D7FF0E3224366EFF0E44
:1009F0003320376EFF0E3420386EFF0E3520396EEF
:100A000036C0AFFF000E446E44C043F043C046F012
:100A100046C045F0AC84AB889D8AAC8AAB8E9E986C
:100A20009E9A1200000E1C6E000E1D6E000E1E6EB1
:100A3000000E1F6E14A008D018501C2619501D223D
:100A40001A501E221B501F22D890183619361A36FB
:100A50001B36D89017321632153214321750141034
:100A600015101610D8A4E6D71CC014F01DC015F040
:100A70001EC016F01FC017F01200E8CF0FF0F29E54
:100A800045281F0B4618D8A405D09D88F28E9DB826
:100A9000FED7F29E4550010D0001800EF324D96E61
:100AA0000001000EF420DA6E0FC0DFFF45281F0B97
:100AB000456E9D88F28E12000AD010C0F6FF11C05C
:100AC000F7FF0800F5503DEC05F0104A112A10C060
:100AD000F6FF11C0F7FF0800F5500009D8B4120066
:100AE000ECD71F0ECB6ECA96CA98CA9ACA9CFC0E47
:100AF000CA16CA84BD50F00B0C09BD6EBD503F0B29
:100B00008009BD6E010EB76E1200F29E4450010DB9
:100B10000001600EF324D96E0001000EF420DA6E9D
:100B2000DF500F6E44281F0B446EF28E0F501200E0
:100B3000E8CF13F01344E846FC0B0309C26EC2B2BF
:100B4000FED7C450126E116AC35011240F6E000EEE
:100B50001220106E1200E8CF10F01040E8423F0B58
:100B6000BE6E10C00FF0030E0F160F3ABD500F18D7
:100B7000CF0B0F18BD6E1200E00E7E6E030E7F6E5F
:100B8000C150F30B0809C16EFC0EC116AE0EC06E4B
:100B9000A00EBA6EC280120000EE60F0400EEE6A47
:100BA000E806FDE1466A456A446A436A000EF86E4B
:100BB00000018BEF00F0ABA204D0AB98AB88000E25
:100BC00012004450F36A4362F32AF3CF0FF00F5040
:100BD0001200720ED36E9B9C000ED16E92682F0E87
:100BE000936ECE0E946E1200BD90BD92BD94BD96D4
:060BF0008B988B9A1200A5
:020000040020DA
:08000000FFFFFFFFFFFFFFFF00
:020000040030CA
:0E000000FF281F0AFF0081FF03C003E003403A
:00000001FF
